{
  "contractName": "Marketplace",
  "abi": [
    {
      "inputs": [],
      "stateMutability": "nonpayable",
      "type": "constructor"
    },
    {
      "anonymous": false,
      "inputs": [
        {
          "indexed": false,
          "internalType": "address",
          "name": "nftContract",
          "type": "address"
        },
        {
          "indexed": false,
          "internalType": "uint256",
          "name": "tokenId",
          "type": "uint256"
        },
        {
          "indexed": false,
          "internalType": "address",
          "name": "seller",
          "type": "address"
        },
        {
          "indexed": false,
          "internalType": "address",
          "name": "owner",
          "type": "address"
        },
        {
          "indexed": false,
          "internalType": "uint256",
          "name": "price",
          "type": "uint256"
        },
        {
          "indexed": false,
          "internalType": "uint256",
          "name": "voteCount",
          "type": "uint256"
        }
      ],
      "name": "NFTListed",
      "type": "event"
    },
    {
      "anonymous": false,
      "inputs": [
        {
          "indexed": false,
          "internalType": "address",
          "name": "nftContract",
          "type": "address"
        },
        {
          "indexed": false,
          "internalType": "uint256",
          "name": "tokenId",
          "type": "uint256"
        },
        {
          "indexed": false,
          "internalType": "address",
          "name": "seller",
          "type": "address"
        },
        {
          "indexed": false,
          "internalType": "address",
          "name": "owner",
          "type": "address"
        },
        {
          "indexed": false,
          "internalType": "uint256",
          "name": "price",
          "type": "uint256"
        },
        {
          "indexed": false,
          "internalType": "uint256",
          "name": "voteCount",
          "type": "uint256"
        }
      ],
      "name": "NFTSold",
      "type": "event"
    },
    {
      "inputs": [],
      "name": "LISTING_FEE",
      "outputs": [
        {
          "internalType": "uint256",
          "name": "",
          "type": "uint256"
        }
      ],
      "stateMutability": "view",
      "type": "function",
      "constant": true
    },
    {
      "inputs": [],
      "name": "currentTime",
      "outputs": [
        {
          "internalType": "uint256",
          "name": "",
          "type": "uint256"
        }
      ],
      "stateMutability": "view",
      "type": "function",
      "constant": true
    },
    {
      "inputs": [],
      "name": "prompt",
      "outputs": [
        {
          "internalType": "string",
          "name": "",
          "type": "string"
        }
      ],
      "stateMutability": "view",
      "type": "function",
      "constant": true
    },
    {
      "inputs": [],
      "name": "time",
      "outputs": [
        {
          "internalType": "uint256",
          "name": "",
          "type": "uint256"
        }
      ],
      "stateMutability": "view",
      "type": "function",
      "constant": true
    },
    {
      "inputs": [
        {
          "internalType": "address",
          "name": "_voter",
          "type": "address"
        }
      ],
      "name": "hasVoted",
      "outputs": [
        {
          "internalType": "bool",
          "name": "",
          "type": "bool"
        }
      ],
      "stateMutability": "view",
      "type": "function",
      "constant": true
    },
    {
      "inputs": [
        {
          "internalType": "uint256",
          "name": "_tokenId",
          "type": "uint256"
        }
      ],
      "name": "voteNFT",
      "outputs": [],
      "stateMutability": "payable",
      "type": "function",
      "payable": true
    },
    {
      "inputs": [
        {
          "internalType": "uint256",
          "name": "_tokenId",
          "type": "uint256"
        }
      ],
      "name": "getVoteCount",
      "outputs": [
        {
          "internalType": "uint256",
          "name": "",
          "type": "uint256"
        }
      ],
      "stateMutability": "view",
      "type": "function",
      "constant": true
    },
    {
      "inputs": [],
      "name": "getPrompt",
      "outputs": [
        {
          "internalType": "string",
          "name": "",
          "type": "string"
        }
      ],
      "stateMutability": "view",
      "type": "function",
      "constant": true
    },
    {
      "inputs": [],
      "name": "getTimeLeft",
      "outputs": [
        {
          "internalType": "uint256",
          "name": "",
          "type": "uint256"
        }
      ],
      "stateMutability": "view",
      "type": "function",
      "constant": true
    },
    {
      "inputs": [
        {
          "internalType": "address",
          "name": "_nftContract",
          "type": "address"
        },
        {
          "internalType": "uint256",
          "name": "_tokenId",
          "type": "uint256"
        },
        {
          "internalType": "uint256",
          "name": "_price",
          "type": "uint256"
        }
      ],
      "name": "listNft",
      "outputs": [],
      "stateMutability": "payable",
      "type": "function",
      "payable": true
    },
    {
      "inputs": [
        {
          "internalType": "address",
          "name": "_nftContract",
          "type": "address"
        },
        {
          "internalType": "uint256",
          "name": "_tokenId",
          "type": "uint256"
        },
        {
          "internalType": "uint256",
          "name": "_price",
          "type": "uint256"
        }
      ],
      "name": "resellNft",
      "outputs": [],
      "stateMutability": "payable",
      "type": "function",
      "payable": true
    },
    {
      "inputs": [
        {
          "internalType": "address",
          "name": "_nftContract",
          "type": "address"
        },
        {
          "internalType": "uint256",
          "name": "_tokenId",
          "type": "uint256"
        }
      ],
      "name": "buyNft",
      "outputs": [],
      "stateMutability": "payable",
      "type": "function",
      "payable": true
    },
    {
      "inputs": [],
      "name": "getListingFee",
      "outputs": [
        {
          "internalType": "uint256",
          "name": "",
          "type": "uint256"
        }
      ],
      "stateMutability": "view",
      "type": "function",
      "constant": true
    },
    {
      "inputs": [],
      "name": "getListedNfts",
      "outputs": [
        {
          "components": [
            {
              "internalType": "address",
              "name": "nftContract",
              "type": "address"
            },
            {
              "internalType": "uint256",
              "name": "tokenId",
              "type": "uint256"
            },
            {
              "internalType": "address payable",
              "name": "seller",
              "type": "address"
            },
            {
              "internalType": "address payable",
              "name": "owner",
              "type": "address"
            },
            {
              "internalType": "uint256",
              "name": "price",
              "type": "uint256"
            },
            {
              "internalType": "bool",
              "name": "listed",
              "type": "bool"
            },
            {
              "internalType": "uint256",
              "name": "voteCount",
              "type": "uint256"
            }
          ],
          "internalType": "struct Marketplace.NFT[]",
          "name": "",
          "type": "tuple[]"
        }
      ],
      "stateMutability": "view",
      "type": "function",
      "constant": true
    },
    {
      "inputs": [],
      "name": "getMyNfts",
      "outputs": [
        {
          "components": [
            {
              "internalType": "address",
              "name": "nftContract",
              "type": "address"
            },
            {
              "internalType": "uint256",
              "name": "tokenId",
              "type": "uint256"
            },
            {
              "internalType": "address payable",
              "name": "seller",
              "type": "address"
            },
            {
              "internalType": "address payable",
              "name": "owner",
              "type": "address"
            },
            {
              "internalType": "uint256",
              "name": "price",
              "type": "uint256"
            },
            {
              "internalType": "bool",
              "name": "listed",
              "type": "bool"
            },
            {
              "internalType": "uint256",
              "name": "voteCount",
              "type": "uint256"
            }
          ],
          "internalType": "struct Marketplace.NFT[]",
          "name": "",
          "type": "tuple[]"
        }
      ],
      "stateMutability": "view",
      "type": "function",
      "constant": true
    },
    {
      "inputs": [],
      "name": "getMyListedNfts",
      "outputs": [
        {
          "components": [
            {
              "internalType": "address",
              "name": "nftContract",
              "type": "address"
            },
            {
              "internalType": "uint256",
              "name": "tokenId",
              "type": "uint256"
            },
            {
              "internalType": "address payable",
              "name": "seller",
              "type": "address"
            },
            {
              "internalType": "address payable",
              "name": "owner",
              "type": "address"
            },
            {
              "internalType": "uint256",
              "name": "price",
              "type": "uint256"
            },
            {
              "internalType": "bool",
              "name": "listed",
              "type": "bool"
            },
            {
              "internalType": "uint256",
              "name": "voteCount",
              "type": "uint256"
            }
          ],
          "internalType": "struct Marketplace.NFT[]",
          "name": "",
          "type": "tuple[]"
        }
      ],
      "stateMutability": "view",
      "type": "function",
      "constant": true
    }
  ],
  "bytecode": "0x6080604052655af3107a40006003556040518060400160405280601081526020017f726f626f74696320636869706d756e6b000000000000000000000000000000008152506007908162000054919062000337565b5062015180600855426009553480156200006d57600080fd5b50600160008190555033600460006101000a81548173ffffffffffffffffffffffffffffffffffffffff021916908373ffffffffffffffffffffffffffffffffffffffff1602179055506200041e565b600081519050919050565b7f4e487b7100000000000000000000000000000000000000000000000000000000600052604160045260246000fd5b7f4e487b7100000000000000000000000000000000000000000000000000000000600052602260045260246000fd5b600060028204905060018216806200013f57607f821691505b602082108103620001555762000154620000f7565b5b50919050565b60008190508160005260206000209050919050565b60006020601f8301049050919050565b600082821b905092915050565b600060088302620001bf7fffffffffffffffffffffffffffffffffffffffffffffffffffffffffffffffff8262000180565b620001cb868362000180565b95508019841693508086168417925050509392505050565b6000819050919050565b6000819050919050565b600062000218620002126200020c84620001e3565b620001ed565b620001e3565b9050919050565b6000819050919050565b6200023483620001f7565b6200024c62000243826200021f565b8484546200018d565b825550505050565b600090565b6200026362000254565b6200027081848462000229565b505050565b5b8181101562000298576200028c60008262000259565b60018101905062000276565b5050565b601f821115620002e757620002b1816200015b565b620002bc8462000170565b81016020851015620002cc578190505b620002e4620002db8562000170565b83018262000275565b50505b505050565b600082821c905092915050565b60006200030c60001984600802620002ec565b1980831691505092915050565b6000620003278383620002f9565b9150826002028217905092915050565b6200034282620000bd565b67ffffffffffffffff8111156200035e576200035d620000c8565b5b6200036a825462000126565b620003778282856200029c565b600060209050601f831160018114620003af57600084156200039a578287015190505b620003a6858262000319565b86555062000416565b601f198416620003bf866200015b565b60005b82811015620003e957848901518255600182019150602085019450602081019050620003c2565b8683101562000409578489015162000405601f891682620002f9565b8355505b6001600288020188555050505b505050505050565b612420806200042e6000396000f3fe6080604052600436106100f35760003560e01c80637c65d7111161008a578063c7e284b811610059578063c7e284b8146102f3578063c922b17c1461031e578063d18e81b31461033a578063fc5be82f14610365576100f3565b80637c65d711146102355780638d6cb3fb14610260578063b2c2f2e81461028b578063b8fe6abe146102c8576100f3565b80632b86ae38116100c65780632b86ae38146101b65780632fbc86d4146101e157806334f5b624146101fd5780634ddf4f8f14610219576100f3565b8063047b07bf146100f857806309eef43e1461012357806316ada547146101605780631f4cc4db1461018b575b600080fd5b34801561010457600080fd5b5061010d610390565b60405161011a9190611ac2565b60405180910390f35b34801561012f57600080fd5b5061014a60048036038101906101459190611b15565b6106cd565b6040516101579190611b51565b60405180910390f35b34801561016c57600080fd5b50610175610723565b6040516101829190611b7b565b60405180910390f35b34801561019757600080fd5b506101a0610729565b6040516101ad9190611ac2565b60405180910390f35b3480156101c257600080fd5b506101cb610ad8565b6040516101d89190611b7b565b60405180910390f35b6101fb60048036038101906101f69190611bc2565b610ade565b005b61021760048036038101906102129190611bef565b610bf8565b005b610233600480360381019061022e9190611c42565b610dd0565b005b34801561024157600080fd5b5061024a611069565b6040516102579190611d12565b60405180910390f35b34801561026c57600080fd5b506102756110f7565b6040516102829190611ac2565b60405180910390f35b34801561029757600080fd5b506102b260048036038101906102ad9190611bc2565b611369565b6040516102bf9190611b7b565b60405180910390f35b3480156102d457600080fd5b506102dd611389565b6040516102ea9190611b7b565b60405180910390f35b3480156102ff57600080fd5b50610308611393565b6040516103159190611b7b565b60405180910390f35b61033860048036038101906103339190611bef565b6113ba565b005b34801561034657600080fd5b5061034f6116fd565b60405161035c9190611b7b565b60405180910390f35b34801561037157600080fd5b5061037a611703565b6040516103879190611d12565b60405180910390f35b6060600061039e6002611795565b90506000805b82811015610443573373ffffffffffffffffffffffffffffffffffffffff16600560006001846103d49190611d63565b815260200190815260200160002060030160009054906101000a900473ffffffffffffffffffffffffffffffffffffffff1673ffffffffffffffffffffffffffffffffffffffff160361043057818061042c90611d97565b9250505b808061043b90611d97565b9150506103a4565b5060008167ffffffffffffffff8111156104605761045f611ddf565b5b60405190808252806020026020018201604052801561049957816020015b61048661186e565b81526020019060019003908161047e5790505b5090506000805b848110156106c2573373ffffffffffffffffffffffffffffffffffffffff16600560006001846104d09190611d63565b815260200190815260200160002060030160009054906101000a900473ffffffffffffffffffffffffffffffffffffffff1673ffffffffffffffffffffffffffffffffffffffff16036106af576005600060018361052e9190611d63565b81526020019081526020016000206040518060e00160405290816000820160009054906101000a900473ffffffffffffffffffffffffffffffffffffffff1673ffffffffffffffffffffffffffffffffffffffff1673ffffffffffffffffffffffffffffffffffffffff168152602001600182015481526020016002820160009054906101000a900473ffffffffffffffffffffffffffffffffffffffff1673ffffffffffffffffffffffffffffffffffffffff1673ffffffffffffffffffffffffffffffffffffffff1681526020016003820160009054906101000a900473ffffffffffffffffffffffffffffffffffffffff1673ffffffffffffffffffffffffffffffffffffffff1673ffffffffffffffffffffffffffffffffffffffff168152602001600482015481526020016005820160009054906101000a900460ff1615151515815260200160068201548152505083838151811061069557610694611e0e565b5b602002602001018190525081806106ab90611d97565b9250505b80806106ba90611d97565b9150506104a0565b508194505050505090565b6000600660008373ffffffffffffffffffffffffffffffffffffffff1673ffffffffffffffffffffffffffffffffffffffff16815260200190815260200160002060009054906101000a900460ff169050919050565b60085481565b606060006107376002611795565b90506000805b82811015610815573373ffffffffffffffffffffffffffffffffffffffff166005600060018461076d9190611d63565b815260200190815260200160002060020160009054906101000a900473ffffffffffffffffffffffffffffffffffffffff1673ffffffffffffffffffffffffffffffffffffffff161480156107ee5750600560006001836107ce9190611d63565b815260200190815260200160002060050160009054906101000a900460ff165b156108025781806107fe90611d97565b9250505b808061080d90611d97565b91505061073d565b5060008167ffffffffffffffff81111561083257610831611ddf565b5b60405190808252806020026020018201604052801561086b57816020015b61085861186e565b8152602001906001900390816108505790505b5090506000805b84811015610acd573373ffffffffffffffffffffffffffffffffffffffff16600560006001846108a29190611d63565b815260200190815260200160002060020160009054906101000a900473ffffffffffffffffffffffffffffffffffffffff1673ffffffffffffffffffffffffffffffffffffffff161480156109235750600560006001836109039190611d63565b815260200190815260200160002060050160009054906101000a900460ff165b15610aba57600560006001836109399190611d63565b81526020019081526020016000206040518060e00160405290816000820160009054906101000a900473ffffffffffffffffffffffffffffffffffffffff1673ffffffffffffffffffffffffffffffffffffffff1673ffffffffffffffffffffffffffffffffffffffff168152602001600182015481526020016002820160009054906101000a900473ffffffffffffffffffffffffffffffffffffffff1673ffffffffffffffffffffffffffffffffffffffff1673ffffffffffffffffffffffffffffffffffffffff1681526020016003820160009054906101000a900473ffffffffffffffffffffffffffffffffffffffff1673ffffffffffffffffffffffffffffffffffffffff1673ffffffffffffffffffffffffffffffffffffffff168152602001600482015481526020016005820160009054906101000a900460ff16151515158152602001600682015481525050838381518110610aa057610a9f611e0e565b5b60200260200101819052508180610ab690611d97565b9250505b8080610ac590611d97565b915050610872565b508194505050505090565b60035481565b60001515600660003373ffffffffffffffffffffffffffffffffffffffff1673ffffffffffffffffffffffffffffffffffffffff16815260200190815260200160002060009054906101000a900460ff16151514610b71576040517f08c379a0000000000000000000000000000000000000000000000000000000008152600401610b6890611eaf565b60405180910390fd5b6001600660003373ffffffffffffffffffffffffffffffffffffffff1673ffffffffffffffffffffffffffffffffffffffff16815260200190815260200160002060006101000a81548160ff021916908315150217905550600560008281526020019081526020016000206006016000815480929190610bf090611d97565b919050555050565b610c006117a3565b6003543414610c44576040517f08c379a0000000000000000000000000000000000000000000000000000000008152600401610c3b90611f1b565b60405180910390fd5b8273ffffffffffffffffffffffffffffffffffffffff166323b872dd3330856040518463ffffffff1660e01b8152600401610c8193929190611f4a565b600060405180830381600087803b158015610c9b57600080fd5b505af1158015610caf573d6000803e3d6000fd5b505050506000600560008481526020019081526020016000209050338160020160006101000a81548173ffffffffffffffffffffffffffffffffffffffff021916908373ffffffffffffffffffffffffffffffffffffffff160217905550308160030160006101000a81548173ffffffffffffffffffffffffffffffffffffffff021916908373ffffffffffffffffffffffffffffffffffffffff16021790555060018160050160006101000a81548160ff021916908315150217905550818160040181905550610d8060016117f2565b7fc832d0dcd7b856cbe96d21951bfd27a151474492114ad271531ad34f7cfd645384843330866000604051610dba96959493929190611fc6565b60405180910390a150610dcb61184e565b505050565b610dd86117a3565b60006005600083815260200190815260200160002090508060040154341015610e36576040517f08c379a0000000000000000000000000000000000000000000000000000000008152600401610e2d90612099565b60405180910390fd5b60003390508160020160009054906101000a900473ffffffffffffffffffffffffffffffffffffffff1673ffffffffffffffffffffffffffffffffffffffff166108fc349081150290604051600060405180830381858888f19350505050158015610ea5573d6000803e3d6000fd5b508373ffffffffffffffffffffffffffffffffffffffff166323b872dd308385600101546040518463ffffffff1660e01b8152600401610ee79392919061210e565b600060405180830381600087803b158015610f0157600080fd5b505af1158015610f15573d6000803e3d6000fd5b50505050600460009054906101000a900473ffffffffffffffffffffffffffffffffffffffff1673ffffffffffffffffffffffffffffffffffffffff166108fc6003549081150290604051600060405180830381858888f19350505050158015610f83573d6000803e3d6000fd5b50808260030160006101000a81548173ffffffffffffffffffffffffffffffffffffffff021916908373ffffffffffffffffffffffffffffffffffffffff16021790555060008260050160006101000a81548160ff021916908315150217905550610fee6001611858565b7f85d6aff492354cbf7fdd7efb2bd8bce059037aef73b968f95d32a417598cbff98483600101548460020160009054906101000a900473ffffffffffffffffffffffffffffffffffffffff168434876006015460405161105396959493929190612145565b60405180910390a1505061106561184e565b5050565b60078054611076906121d5565b80601f01602080910402602001604051908101604052809291908181526020018280546110a2906121d5565b80156110ef5780601f106110c4576101008083540402835291602001916110ef565b820191906000526020600020905b8154815290600101906020018083116110d257829003601f168201915b505050505081565b606060006111056002611795565b905060006111136001611795565b8261111e9190612206565b905060008167ffffffffffffffff81111561113c5761113b611ddf565b5b60405190808252806020026020018201604052801561117557816020015b61116261186e565b81526020019060019003908161115a5790505b5090506000805b8481101561135e57600560006001836111959190611d63565b815260200190815260200160002060050160009054906101000a900460ff161561134b57600560006001836111ca9190611d63565b81526020019081526020016000206040518060e00160405290816000820160009054906101000a900473ffffffffffffffffffffffffffffffffffffffff1673ffffffffffffffffffffffffffffffffffffffff1673ffffffffffffffffffffffffffffffffffffffff168152602001600182015481526020016002820160009054906101000a900473ffffffffffffffffffffffffffffffffffffffff1673ffffffffffffffffffffffffffffffffffffffff1673ffffffffffffffffffffffffffffffffffffffff1681526020016003820160009054906101000a900473ffffffffffffffffffffffffffffffffffffffff1673ffffffffffffffffffffffffffffffffffffffff1673ffffffffffffffffffffffffffffffffffffffff168152602001600482015481526020016005820160009054906101000a900460ff1615151515815260200160068201548152505083838151811061133157611330611e0e565b5b6020026020010181905250818061134790611d97565b9250505b808061135690611d97565b91505061117c565b508194505050505090565b600060056000838152602001908152602001600020600601549050919050565b6000600354905090565b600080600954426113a49190612206565b6008546113b19190612206565b90508091505090565b6113c26117a3565b60008111611405576040517f08c379a00000000000000000000000000000000000000000000000000000000081526004016113fc90612286565b60405180910390fd5b6003543414611449576040517f08c379a000000000000000000000000000000000000000000000000000000000815260040161144090611f1b565b60405180910390fd5b6000611453611393565b11611493576040517f08c379a000000000000000000000000000000000000000000000000000000000815260040161148a906122f2565b60405180910390fd5b8273ffffffffffffffffffffffffffffffffffffffff166323b872dd3330856040518463ffffffff1660e01b81526004016114d093929190611f4a565b600060405180830381600087803b1580156114ea57600080fd5b505af11580156114fe573d6000803e3d6000fd5b5050505061150c6002611858565b6040518060e001604052808473ffffffffffffffffffffffffffffffffffffffff1681526020018381526020013373ffffffffffffffffffffffffffffffffffffffff1681526020013073ffffffffffffffffffffffffffffffffffffffff16815260200182815260200160011515815260200160008152506005600084815260200190815260200160002060008201518160000160006101000a81548173ffffffffffffffffffffffffffffffffffffffff021916908373ffffffffffffffffffffffffffffffffffffffff1602179055506020820151816001015560408201518160020160006101000a81548173ffffffffffffffffffffffffffffffffffffffff021916908373ffffffffffffffffffffffffffffffffffffffff16021790555060608201518160030160006101000a81548173ffffffffffffffffffffffffffffffffffffffff021916908373ffffffffffffffffffffffffffffffffffffffff1602179055506080820151816004015560a08201518160050160006101000a81548160ff02191690831515021790555060c082015181600601559050507fc832d0dcd7b856cbe96d21951bfd27a151474492114ad271531ad34f7cfd6453838333308560006040516116e896959493929190611fc6565b60405180910390a16116f861184e565b505050565b60095481565b606060078054611712906121d5565b80601f016020809104026020016040519081016040528092919081815260200182805461173e906121d5565b801561178b5780601f106117605761010080835404028352916020019161178b565b820191906000526020600020905b81548152906001019060200180831161176e57829003601f168201915b5050505050905090565b600081600001549050919050565b6002600054036117e8576040517f08c379a00000000000000000000000000000000000000000000000000000000081526004016117df9061235e565b60405180910390fd5b6002600081905550565b6000816000015490506000811161183e576040517f08c379a0000000000000000000000000000000000000000000000000000000008152600401611835906123ca565b60405180910390fd5b6001810382600001819055505050565b6001600081905550565b6001816000016000828254019250508190555050565b6040518060e00160405280600073ffffffffffffffffffffffffffffffffffffffff16815260200160008152602001600073ffffffffffffffffffffffffffffffffffffffff168152602001600073ffffffffffffffffffffffffffffffffffffffff16815260200160008152602001600015158152602001600081525090565b600081519050919050565b600082825260208201905092915050565b6000819050602082019050919050565b600073ffffffffffffffffffffffffffffffffffffffff82169050919050565b60006119468261191b565b9050919050565b6119568161193b565b82525050565b6000819050919050565b61196f8161195c565b82525050565b60006119808261191b565b9050919050565b61199081611975565b82525050565b60008115159050919050565b6119ab81611996565b82525050565b60e0820160008201516119c7600085018261194d565b5060208201516119da6020850182611966565b5060408201516119ed6040850182611987565b506060820151611a006060850182611987565b506080820151611a136080850182611966565b5060a0820151611a2660a08501826119a2565b5060c0820151611a3960c0850182611966565b50505050565b6000611a4b83836119b1565b60e08301905092915050565b6000602082019050919050565b6000611a6f826118ef565b611a7981856118fa565b9350611a848361190b565b8060005b83811015611ab5578151611a9c8882611a3f565b9750611aa783611a57565b925050600181019050611a88565b5085935050505092915050565b60006020820190508181036000830152611adc8184611a64565b905092915050565b600080fd5b611af28161193b565b8114611afd57600080fd5b50565b600081359050611b0f81611ae9565b92915050565b600060208284031215611b2b57611b2a611ae4565b5b6000611b3984828501611b00565b91505092915050565b611b4b81611996565b82525050565b6000602082019050611b666000830184611b42565b92915050565b611b758161195c565b82525050565b6000602082019050611b906000830184611b6c565b92915050565b611b9f8161195c565b8114611baa57600080fd5b50565b600081359050611bbc81611b96565b92915050565b600060208284031215611bd857611bd7611ae4565b5b6000611be684828501611bad565b91505092915050565b600080600060608486031215611c0857611c07611ae4565b5b6000611c1686828701611b00565b9350506020611c2786828701611bad565b9250506040611c3886828701611bad565b9150509250925092565b60008060408385031215611c5957611c58611ae4565b5b6000611c6785828601611b00565b9250506020611c7885828601611bad565b9150509250929050565b600081519050919050565b600082825260208201905092915050565b60005b83811015611cbc578082015181840152602081019050611ca1565b60008484015250505050565b6000601f19601f8301169050919050565b6000611ce482611c82565b611cee8185611c8d565b9350611cfe818560208601611c9e565b611d0781611cc8565b840191505092915050565b60006020820190508181036000830152611d2c8184611cd9565b905092915050565b7f4e487b7100000000000000000000000000000000000000000000000000000000600052601160045260246000fd5b6000611d6e8261195c565b9150611d798361195c565b9250828201905080821115611d9157611d90611d34565b5b92915050565b6000611da28261195c565b91507fffffffffffffffffffffffffffffffffffffffffffffffffffffffffffffffff8203611dd457611dd3611d34565b5b600182019050919050565b7f4e487b7100000000000000000000000000000000000000000000000000000000600052604160045260246000fd5b7f4e487b7100000000000000000000000000000000000000000000000000000000600052603260045260246000fd5b7f596f75206861766520616c726561647920766f74656420666f7220746869732060008201527f4e46540000000000000000000000000000000000000000000000000000000000602082015250565b6000611e99602383611c8d565b9150611ea482611e3d565b604082019050919050565b60006020820190508181036000830152611ec881611e8c565b9050919050565b7f4e6f7420656e6f75676820657468657220666f72206c697374696e6720666565600082015250565b6000611f05602083611c8d565b9150611f1082611ecf565b602082019050919050565b60006020820190508181036000830152611f3481611ef8565b9050919050565b611f448161193b565b82525050565b6000606082019050611f5f6000830186611f3b565b611f6c6020830185611f3b565b611f796040830184611b6c565b949350505050565b6000819050919050565b6000819050919050565b6000611fb0611fab611fa684611f81565b611f8b565b61195c565b9050919050565b611fc081611f95565b82525050565b600060c082019050611fdb6000830189611f3b565b611fe86020830188611b6c565b611ff56040830187611f3b565b6120026060830186611f3b565b61200f6080830185611b6c565b61201c60a0830184611fb7565b979650505050505050565b7f4e6f7420656e6f75676820657468657220746f20636f7665722061736b696e6760008201527f2070726963650000000000000000000000000000000000000000000000000000602082015250565b6000612083602683611c8d565b915061208e82612027565b604082019050919050565b600060208201905081810360008301526120b281612076565b9050919050565b60006120d46120cf6120ca8461191b565b611f8b565b61191b565b9050919050565b60006120e6826120b9565b9050919050565b60006120f8826120db565b9050919050565b612108816120ed565b82525050565b60006060820190506121236000830186611f3b565b61213060208301856120ff565b61213d6040830184611b6c565b949350505050565b600060c08201905061215a6000830189611f3b565b6121676020830188611b6c565b61217460408301876120ff565b61218160608301866120ff565b61218e6080830185611b6c565b61219b60a0830184611b6c565b979650505050505050565b7f4e487b7100000000000000000000000000000000000000000000000000000000600052602260045260246000fd5b600060028204905060018216806121ed57607f821691505b602082108103612200576121ff6121a6565b5b50919050565b60006122118261195c565b915061221c8361195c565b925082820390508181111561223457612233611d34565b5b92915050565b7f5072696365206d757374206265206174206c6561737420312077656900000000600082015250565b6000612270601c83611c8d565b915061227b8261223a565b602082019050919050565b6000602082019050818103600083015261229f81612263565b9050919050565b7f54696d6520686173206578706972656400000000000000000000000000000000600082015250565b60006122dc601083611c8d565b91506122e7826122a6565b602082019050919050565b6000602082019050818103600083015261230b816122cf565b9050919050565b7f5265656e7472616e637947756172643a207265656e7472616e742063616c6c00600082015250565b6000612348601f83611c8d565b915061235382612312565b602082019050919050565b600060208201905081810360008301526123778161233b565b9050919050565b7f436f756e7465723a2064656372656d656e74206f766572666c6f770000000000600082015250565b60006123b4601b83611c8d565b91506123bf8261237e565b602082019050919050565b600060208201905081810360008301526123e3816123a7565b905091905056fea26469706673582212208301cdde622efbc2fca48b77a935171242a77d99ee547254d10c144df29d258264736f6c63430008110033",
  "immutableReferences": {},
  "source": "// SPDX-License-Identifier: MIT\r\npragma solidity ^0.8.13;\r\n\r\nimport \"@openzeppelin/contracts/utils/Counters.sol\";\r\nimport \"@openzeppelin/contracts/token/ERC721/ERC721.sol\";\r\nimport \"@openzeppelin/contracts/security/ReentrancyGuard.sol\";\r\n\r\ncontract Marketplace is ReentrancyGuard {\r\n    using Counters for Counters.Counter;\r\n    Counters.Counter private _nftsSold;\r\n    Counters.Counter private _nftCount;\r\n    uint256 public LISTING_FEE = 0.0001 ether;\r\n    address payable private _marketOwner;\r\n    mapping(uint256 => NFT) private _idToNFT;\r\n    mapping(address => bool) private _voters;\r\n\r\n    string public prompt = \"robotic chipmunk\";\r\n    // public time of 0.001 day\r\n    uint256 public time = 1 days;\r\n    uint256 public currentTime = block.timestamp;\r\n\r\n    struct NFT {\r\n        address nftContract;\r\n        uint256 tokenId;\r\n        address payable seller;\r\n        address payable owner;\r\n        uint256 price;\r\n        bool listed;\r\n        uint256 voteCount;\r\n    }\r\n    event NFTListed(\r\n        address nftContract,\r\n        uint256 tokenId,\r\n        address seller,\r\n        address owner,\r\n        uint256 price,\r\n        uint256 voteCount\r\n    );\r\n    event NFTSold(\r\n        address nftContract,\r\n        uint256 tokenId,\r\n        address seller,\r\n        address owner,\r\n        uint256 price,\r\n        uint256 voteCount\r\n    );\r\n\r\n    constructor() {\r\n        _marketOwner = payable(msg.sender);\r\n    }\r\n\r\n    function hasVoted(address _voter) public view returns (bool) {\r\n        // return true if user has already voted, false otherwise\r\n        return _voters[_voter];\r\n    }\r\n\r\n    function voteNFT(uint256 _tokenId) public payable {\r\n        require(\r\n            _voters[msg.sender] == false,\r\n            \"You have already voted for this NFT\"\r\n        );\r\n        _voters[msg.sender] = true;\r\n\r\n        // increment vote count for NFT\r\n        _idToNFT[_tokenId].voteCount++;\r\n    }\r\n\r\n    function getVoteCount(uint256 _tokenId) public view returns (uint256) {\r\n        return _idToNFT[_tokenId].voteCount;\r\n    }\r\n\r\n    function getPrompt() public view returns (string memory) {\r\n        return prompt;\r\n    }\r\n\r\n    function getTimeLeft() public view returns (uint256) {\r\n        // do the math to find the time between the current time and the time\r\n        uint256 timeLeft = time - (block.timestamp - currentTime);\r\n        return timeLeft;\r\n    }\r\n\r\n    // List the NFT on the marketplace\r\n    function listNft(\r\n        address _nftContract,\r\n        uint256 _tokenId,\r\n        uint256 _price\r\n    ) public payable nonReentrant {\r\n        require(_price > 0, \"Price must be at least 1 wei\");\r\n        require(msg.value == LISTING_FEE, \"Not enough ether for listing fee\");\r\n        // require that there is time remaining\r\n        require(getTimeLeft() > 0, \"Time has expired\");\r\n\r\n        IERC721(_nftContract).transferFrom(msg.sender, address(this), _tokenId);\r\n\r\n        _nftCount.increment();\r\n\r\n        _idToNFT[_tokenId] = NFT(\r\n            _nftContract,\r\n            _tokenId,\r\n            payable(msg.sender),\r\n            payable(address(this)),\r\n            _price,\r\n            true,\r\n            0\r\n        );\r\n\r\n        emit NFTListed(\r\n            _nftContract,\r\n            _tokenId,\r\n            msg.sender,\r\n            address(this),\r\n            _price,\r\n            0\r\n        );\r\n    }\r\n\r\n    // Resell an NFT purchased from the marketplace\r\n    function resellNft(\r\n        address _nftContract,\r\n        uint256 _tokenId,\r\n        uint256 _price\r\n    ) public payable nonReentrant {\r\n        require(msg.value == LISTING_FEE, \"Not enough ether for listing fee\");\r\n\r\n        IERC721(_nftContract).transferFrom(msg.sender, address(this), _tokenId);\r\n\r\n        NFT storage nft = _idToNFT[_tokenId];\r\n        nft.seller = payable(msg.sender);\r\n        nft.owner = payable(address(this));\r\n        nft.listed = true;\r\n        nft.price = _price;\r\n\r\n        _nftsSold.decrement();\r\n        emit NFTListed(\r\n            _nftContract,\r\n            _tokenId,\r\n            msg.sender,\r\n            address(this),\r\n            _price,\r\n            0\r\n        );\r\n    }\r\n\r\n    // Buy an NFT\r\n    function buyNft(address _nftContract, uint256 _tokenId)\r\n        public\r\n        payable\r\n        nonReentrant\r\n    {\r\n        NFT storage nft = _idToNFT[_tokenId];\r\n        require(\r\n            msg.value >= nft.price,\r\n            \"Not enough ether to cover asking price\"\r\n        );\r\n\r\n        address payable buyer = payable(msg.sender);\r\n        payable(nft.seller).transfer(msg.value);\r\n        IERC721(_nftContract).transferFrom(address(this), buyer, nft.tokenId);\r\n        _marketOwner.transfer(LISTING_FEE);\r\n        nft.owner = buyer;\r\n        nft.listed = false;\r\n\r\n        _nftsSold.increment();\r\n        emit NFTSold(\r\n            _nftContract,\r\n            nft.tokenId,\r\n            nft.seller,\r\n            buyer,\r\n            msg.value,\r\n            nft.voteCount\r\n        );\r\n    }\r\n\r\n    function getListingFee() public view returns (uint256) {\r\n        return LISTING_FEE;\r\n    }\r\n\r\n    function getListedNfts() public view returns (NFT[] memory) {\r\n        uint256 nftCount = _nftCount.current();\r\n        uint256 unsoldNftsCount = nftCount - _nftsSold.current();\r\n\r\n        NFT[] memory nfts = new NFT[](unsoldNftsCount);\r\n        uint256 nftsIndex = 0;\r\n        for (uint256 i = 0; i < nftCount; i++) {\r\n            if (_idToNFT[i + 1].listed) {\r\n                nfts[nftsIndex] = _idToNFT[i + 1];\r\n                nftsIndex++;\r\n            }\r\n        }\r\n        return nfts;\r\n    }\r\n\r\n    function getMyNfts() public view returns (NFT[] memory) {\r\n        uint256 nftCount = _nftCount.current();\r\n        uint256 myNftCount = 0;\r\n        for (uint256 i = 0; i < nftCount; i++) {\r\n            if (_idToNFT[i + 1].owner == msg.sender) {\r\n                myNftCount++;\r\n            }\r\n        }\r\n\r\n        NFT[] memory nfts = new NFT[](myNftCount);\r\n        uint256 nftsIndex = 0;\r\n        for (uint256 i = 0; i < nftCount; i++) {\r\n            if (_idToNFT[i + 1].owner == msg.sender) {\r\n                nfts[nftsIndex] = _idToNFT[i + 1];\r\n                nftsIndex++;\r\n            }\r\n        }\r\n        return nfts;\r\n    }\r\n\r\n    function getMyListedNfts() public view returns (NFT[] memory) {\r\n        uint256 nftCount = _nftCount.current();\r\n        uint256 myListedNftCount = 0;\r\n        for (uint256 i = 0; i < nftCount; i++) {\r\n            if (\r\n                _idToNFT[i + 1].seller == msg.sender && _idToNFT[i + 1].listed\r\n            ) {\r\n                myListedNftCount++;\r\n            }\r\n        }\r\n\r\n        NFT[] memory nfts = new NFT[](myListedNftCount);\r\n        uint256 nftsIndex = 0;\r\n        for (uint256 i = 0; i < nftCount; i++) {\r\n            if (\r\n                _idToNFT[i + 1].seller == msg.sender && _idToNFT[i + 1].listed\r\n            ) {\r\n                nfts[nftsIndex] = _idToNFT[i + 1];\r\n                nftsIndex++;\r\n            }\r\n        }\r\n        return nfts;\r\n    }\r\n}\r\n",
  "sourcePath": "C:\\Users\\chris\\doodl\\doodl-gpt3\\backend\\contracts\\Marketplace.sol",
  "compiler": {
    "name": "solc",
    "version": "0.8.17+commit.8df45f5f.Emscripten.clang"
  },
  "schemaVersion": "3.4.11",
  "updatedAt": "2022-12-03T07:44:56.662Z",
  "networkType": "ethereum",
  "devdoc": {
    "kind": "dev",
    "methods": {},
    "version": 1
  },
  "userdoc": {
    "kind": "user",
    "methods": {},
    "version": 1
  }
}